{
  "contractName": "MessageBoardApp",
  "abi": [
    {
      "constant": true,
      "inputs": [
        {
          "internalType": "uint256",
          "name": "",
          "type": "uint256"
        }
      ],
      "name": "personalMessages",
      "outputs": [
        {
          "internalType": "address",
          "name": "from",
          "type": "address"
        },
        {
          "internalType": "string",
          "name": "message",
          "type": "string"
        },
        {
          "internalType": "uint256",
          "name": "value",
          "type": "uint256"
        }
      ],
      "payable": false,
      "stateMutability": "view",
      "type": "function"
    },
    {
      "constant": false,
      "inputs": [
        {
          "internalType": "address payable",
          "name": "to",
          "type": "address"
        },
        {
          "internalType": "string",
          "name": "_message",
          "type": "string"
        }
      ],
      "name": "sendMessage",
      "outputs": [],
      "payable": true,
      "stateMutability": "payable",
      "type": "function"
    },
    {
      "constant": false,
      "inputs": [
        {
          "internalType": "address",
          "name": "mine",
          "type": "address"
        }
      ],
      "name": "returnNoOfMsgs",
      "outputs": [
        {
          "internalType": "uint256",
          "name": "",
          "type": "uint256"
        }
      ],
      "payable": false,
      "stateMutability": "nonpayable",
      "type": "function"
    },
    {
      "constant": false,
      "inputs": [
        {
          "internalType": "address",
          "name": "mine",
          "type": "address"
        },
        {
          "internalType": "uint256",
          "name": "index",
          "type": "uint256"
        }
      ],
      "name": "returnMessages",
      "outputs": [
        {
          "internalType": "address",
          "name": "",
          "type": "address"
        },
        {
          "internalType": "string",
          "name": "",
          "type": "string"
        },
        {
          "internalType": "uint256",
          "name": "",
          "type": "uint256"
        }
      ],
      "payable": false,
      "stateMutability": "nonpayable",
      "type": "function"
    }
  ],
  "bytecode": "0x608060405234801561001057600080fd5b50610a97806100206000396000f3fe60806040526004361061003f5760003560e01c80632b2405bc146100445780636b14a36b146100a95780639da4bd86146101b7578063de6f24bb146102a5575b600080fd5b34801561005057600080fd5b506100936004803603602081101561006757600080fd5b81019080803573ffffffffffffffffffffffffffffffffffffffff169060200190929190505050610380565b6040518082815260200191505060405180910390f35b3480156100b557600080fd5b50610102600480360360408110156100cc57600080fd5b81019080803573ffffffffffffffffffffffffffffffffffffffff169060200190929190803590602001909291905050506103cc565b604051808473ffffffffffffffffffffffffffffffffffffffff1673ffffffffffffffffffffffffffffffffffffffff16815260200180602001838152602001828103825284818151815260200191508051906020019080838360005b8381101561017a57808201518184015260208101905061015f565b50505050905090810190601f1680156101a75780820380516001836020036101000a031916815260200191505b5094505050505060405180910390f35b3480156101c357600080fd5b506101f0600480360360208110156101da57600080fd5b81019080803590602001909291905050506105ae565b604051808473ffffffffffffffffffffffffffffffffffffffff1673ffffffffffffffffffffffffffffffffffffffff16815260200180602001838152602001828103825284818151815260200191508051906020019080838360005b8381101561026857808201518184015260208101905061024d565b50505050905090810190601f1680156102955780820380516001836020036101000a031916815260200191505b5094505050505060405180910390f35b61037e600480360360408110156102bb57600080fd5b81019080803573ffffffffffffffffffffffffffffffffffffffff169060200190929190803590602001906401000000008111156102f857600080fd5b82018360208201111561030a57600080fd5b8035906020019184600183028401116401000000008311171561032c57600080fd5b91908080601f016020809104026020016040519081016040528093929190818152602001838380828437600081840152601f19601f82011690508083019250505050505050919291929050505061069d565b005b6000600360008373ffffffffffffffffffffffffffffffffffffffff1673ffffffffffffffffffffffffffffffffffffffff168152602001908152602001600020805490509050919050565b600060606000600360008673ffffffffffffffffffffffffffffffffffffffff1673ffffffffffffffffffffffffffffffffffffffff168152602001908152602001600020848154811061041c57fe5b906000526020600020906003020160000160009054906101000a900473ffffffffffffffffffffffffffffffffffffffff16600360008773ffffffffffffffffffffffffffffffffffffffff1673ffffffffffffffffffffffffffffffffffffffff168152602001908152602001600020858154811061049857fe5b9060005260206000209060030201600101600360008873ffffffffffffffffffffffffffffffffffffffff1673ffffffffffffffffffffffffffffffffffffffff16815260200190815260200160002086815481106104f357fe5b906000526020600020906003020160020154818054600181600116156101000203166002900480601f01602080910402602001604051908101604052809291908181526020018280546001816001161561010002031660029004801561059a5780601f1061056f5761010080835404028352916020019161059a565b820191906000526020600020905b81548152906001019060200180831161057d57829003601f168201915b505050505091509250925092509250925092565b600481815481106105bb57fe5b90600052602060002090600302016000915090508060000160009054906101000a900473ffffffffffffffffffffffffffffffffffffffff1690806001018054600181600116156101000203166002900480601f01602080910402602001604051908101604052809291908181526020018280546001816001161561010002031660029004801561068d5780601f106106625761010080835404028352916020019161068d565b820191906000526020600020905b81548152906001019060200180831161067057829003601f168201915b5050505050908060020154905083565b60405180606001604052803373ffffffffffffffffffffffffffffffffffffffff168152602001828152602001348152506000808201518160000160006101000a81548173ffffffffffffffffffffffffffffffffffffffff021916908373ffffffffffffffffffffffffffffffffffffffff1602179055506020820151816001019080519060200190610732929190610936565b5060408201518160020155905050600360008373ffffffffffffffffffffffffffffffffffffffff1673ffffffffffffffffffffffffffffffffffffffff1681526020019081526020016000206000908060018154018082558091505090600182039060005260206000209060030201600090919290919091506000820160009054906101000a900473ffffffffffffffffffffffffffffffffffffffff168160000160006101000a81548173ffffffffffffffffffffffffffffffffffffffff021916908373ffffffffffffffffffffffffffffffffffffffff1602179055506001820181600101908054600181600116156101000203166002900461083a9291906109b6565b50600282015481600201555050506000341461093257600060608373ffffffffffffffffffffffffffffffffffffffff163460405180600001905060006040518083038185875af1925050503d80600081146108b2576040519150601f19603f3d011682016040523d82523d6000602084013e6108b7565b606091505b50915091508161092f576040517f08c379a00000000000000000000000000000000000000000000000000000000081526004018080602001828103825260148152602001807f4661696c656420746f2073656e6420457468657200000000000000000000000081525060200191505060405180910390fd5b50505b5050565b828054600181600116156101000203166002900490600052602060002090601f016020900481019282601f1061097757805160ff19168380011785556109a5565b828001600101855582156109a5579182015b828111156109a4578251825591602001919060010190610989565b5b5090506109b29190610a3d565b5090565b828054600181600116156101000203166002900490600052602060002090601f016020900481019282601f106109ef5780548555610a2c565b82800160010185558215610a2c57600052602060002091601f016020900482015b82811115610a2b578254825591600101919060010190610a10565b5b509050610a399190610a3d565b5090565b610a5f91905b80821115610a5b576000816000905550600101610a43565b5090565b9056fea265627a7a72315820ed5a77d44f72072113eb85f91b06d4ef53f3222c841824bad5b94f8003cb49ac64736f6c63430005100032",
  "source": "pragma solidity 0.5.16;\n// pragma experimental ABIEncoderV2;\n\ncontract MessageBoardApp {\n    struct Message{\n        address from;\n        string message;\n        uint value;   \n    }\n    \n    Message message;\n    \n    mapping (address => Message[]) userMessages;\n    // Message interMessages;\n    Message[] public personalMessages;\n    \n    //function to push message to certain addresses message array\n    function sendMessage(address payable to, string memory _message) public payable{\n        message = Message(msg.sender,_message,msg.value);\n        userMessages[to].push(message);\n        if(msg.value != 0){\n            (bool sent, bytes memory data) = to.call.value(msg.value)(\"\");\n            require(sent, \"Failed to send Ether\");\n        //     userMessages[to].push(message);\n        // }else{\n        //     userMessages[to].push(message);\n        }\n            //// userMessages[to].push(message);\n    }\n    \n    //function to inform front end of number of messages\n    function returnNoOfMsgs(address mine) external returns(uint){\n        return userMessages[mine].length;\n    }\n    //function to populate personalMessages array when called\n    function returnMessages(address mine, uint index) external returns(address, string memory, uint) {\n        return (userMessages[mine][index].from,userMessages[mine][index].message,userMessages[mine][index].value);\n    }\n}",
  "sourcePath": "/Users/aj/Documents/OSxCHP/Development/Portfolio/web3/Projects/MessageBoardApp/backendMessageBoardApp/contracts/MessageBoardApp.sol",
  "compiler": {
    "name": "solc",
    "version": "0.5.16+commit.9c3226ce.Emscripten.clang"
  },
  "schemaVersion": "3.4.3",
  "updatedAt": "2021-10-31T15:32:25.504Z",
  "networkType": "ethereum",
  "devdoc": {
    "methods": {}
  },
  "userdoc": {
    "methods": {}
  }
}